{
  "contractName": "Election",
  "abi": [
    {
      "constant": true,
      "inputs": [
        {
          "name": "",
          "type": "uint256"
        }
      ],
      "name": "candidates",
      "outputs": [
        {
          "name": "candidateId",
          "type": "uint256"
        },
        {
          "name": "name",
          "type": "string"
        },
        {
          "name": "party",
          "type": "string"
        },
        {
          "name": "voteCount",
          "type": "uint256"
        }
      ],
      "payable": false,
      "stateMutability": "view",
      "type": "function"
    },
    {
      "constant": true,
      "inputs": [],
      "name": "owner",
      "outputs": [
        {
          "name": "",
          "type": "address"
        }
      ],
      "payable": false,
      "stateMutability": "view",
      "type": "function"
    },
    {
      "constant": true,
      "inputs": [
        {
          "name": "",
          "type": "address"
        }
      ],
      "name": "voters",
      "outputs": [
        {
          "name": "voterAddress",
          "type": "address"
        },
        {
          "name": "hasVoted",
          "type": "bool"
        },
        {
          "name": "isVerified",
          "type": "bool"
        }
      ],
      "payable": false,
      "stateMutability": "view",
      "type": "function"
    },
    {
      "inputs": [],
      "payable": false,
      "stateMutability": "nonpayable",
      "type": "constructor"
    },
    {
      "anonymous": false,
      "inputs": [
        {
          "indexed": true,
          "name": "_name",
          "type": "string"
        },
        {
          "indexed": true,
          "name": "_party",
          "type": "string"
        }
      ],
      "name": "addedCandidateEvent",
      "type": "event"
    },
    {
      "anonymous": false,
      "inputs": [
        {
          "indexed": true,
          "name": "_publicKey",
          "type": "address"
        }
      ],
      "name": "addedVoterEvent",
      "type": "event"
    },
    {
      "anonymous": false,
      "inputs": [
        {
          "indexed": true,
          "name": "_ready",
          "type": "uint256"
        }
      ],
      "name": "electionReady",
      "type": "event"
    },
    {
      "anonymous": false,
      "inputs": [
        {
          "indexed": true,
          "name": "_candidateId",
          "type": "uint256"
        }
      ],
      "name": "votedEvent",
      "type": "event"
    },
    {
      "constant": true,
      "inputs": [],
      "name": "getOwner",
      "outputs": [
        {
          "name": "",
          "type": "address"
        }
      ],
      "payable": false,
      "stateMutability": "view",
      "type": "function"
    },
    {
      "constant": false,
      "inputs": [
        {
          "name": "_name",
          "type": "string"
        },
        {
          "name": "_party",
          "type": "string"
        }
      ],
      "name": "addCandidate",
      "outputs": [],
      "payable": false,
      "stateMutability": "nonpayable",
      "type": "function"
    },
    {
      "constant": true,
      "inputs": [
        {
          "name": "_candidateId",
          "type": "uint256"
        }
      ],
      "name": "getCandidateName",
      "outputs": [
        {
          "name": "",
          "type": "string"
        }
      ],
      "payable": false,
      "stateMutability": "view",
      "type": "function"
    },
    {
      "constant": true,
      "inputs": [
        {
          "name": "_candidateId",
          "type": "uint256"
        }
      ],
      "name": "getCandidateParty",
      "outputs": [
        {
          "name": "",
          "type": "string"
        }
      ],
      "payable": false,
      "stateMutability": "view",
      "type": "function"
    },
    {
      "constant": true,
      "inputs": [
        {
          "name": "_candidateId",
          "type": "uint256"
        }
      ],
      "name": "getCandidateVoteCount",
      "outputs": [
        {
          "name": "",
          "type": "uint256"
        }
      ],
      "payable": false,
      "stateMutability": "view",
      "type": "function"
    },
    {
      "constant": true,
      "inputs": [],
      "name": "getCandidateCount",
      "outputs": [
        {
          "name": "",
          "type": "uint256"
        }
      ],
      "payable": false,
      "stateMutability": "view",
      "type": "function"
    },
    {
      "constant": false,
      "inputs": [
        {
          "name": "_publicKey",
          "type": "address"
        }
      ],
      "name": "addVoter",
      "outputs": [],
      "payable": false,
      "stateMutability": "nonpayable",
      "type": "function"
    },
    {
      "constant": true,
      "inputs": [],
      "name": "getVoterCount",
      "outputs": [
        {
          "name": "",
          "type": "uint256"
        }
      ],
      "payable": false,
      "stateMutability": "view",
      "type": "function"
    },
    {
      "constant": true,
      "inputs": [],
      "name": "getCastVotesCount",
      "outputs": [
        {
          "name": "",
          "type": "uint256"
        }
      ],
      "payable": false,
      "stateMutability": "view",
      "type": "function"
    },
    {
      "constant": false,
      "inputs": [
        {
          "name": "_candidateId",
          "type": "uint256"
        }
      ],
      "name": "vote",
      "outputs": [],
      "payable": false,
      "stateMutability": "nonpayable",
      "type": "function"
    },
    {
      "constant": false,
      "inputs": [],
      "name": "startElection",
      "outputs": [],
      "payable": false,
      "stateMutability": "nonpayable",
      "type": "function"
    },
    {
      "constant": false,
      "inputs": [],
      "name": "endElection",
      "outputs": [],
      "payable": false,
      "stateMutability": "nonpayable",
      "type": "function"
    },
    {
      "constant": true,
      "inputs": [],
      "name": "getStart",
      "outputs": [
        {
          "name": "",
          "type": "bool"
        }
      ],
      "payable": false,
      "stateMutability": "view",
      "type": "function"
    },
    {
      "constant": true,
      "inputs": [],
      "name": "getEnd",
      "outputs": [
        {
          "name": "",
          "type": "bool"
        }
      ],
      "payable": false,
      "stateMutability": "view",
      "type": "function"
    },
    {
      "constant": true,
      "inputs": [],
      "name": "winnerIndex",
      "outputs": [
        {
          "name": "winnerIndex_",
          "type": "uint256"
        }
      ],
      "payable": false,
      "stateMutability": "view",
      "type": "function"
    },
    {
      "constant": true,
      "inputs": [],
      "name": "winnerName",
      "outputs": [
        {
          "name": "winnerName_",
          "type": "string"
        }
      ],
      "payable": false,
      "stateMutability": "view",
      "type": "function"
    }
  ],
  "bytecode": "0x608060405234801561001057600080fd5b50336000806101000a81548173ffffffffffffffffffffffffffffffffffffffff021916908373ffffffffffffffffffffffffffffffffffffffff1602179055506000600181905550600060028190555060006003819055506000600460006101000a81548160ff0219169083151502179055506000600460016101000a81548160ff021916908315150217905550611906806100ae6000396000f300608060405260043610610107576000357c0100000000000000000000000000000000000000000000000000000000900463ffffffff1680630121b93f1461010c57806311174a291461013957806315ebaa991461016457806326541b561461018f57806330a563471461023e5780633477ee2e14610269578063456645a71461038957806359f784681461042f57806362d73eb814610446578063893d20e81461045d5780638da5cb5b146104b45780638f00cbfa1461050b5780639f05a36d14610536578063a3ec138d14610565578063b315c597146105fe578063c5292c671461063f578063e13804a71461066e578063e2ba53f014610714578063f4ab9adf146107a4575b600080fd5b34801561011857600080fd5b50610137600480360381019080803590602001909291905050506107e7565b005b34801561014557600080fd5b5061014e610b96565b6040518082815260200191505060405180910390f35b34801561017057600080fd5b50610179610ba0565b6040518082815260200191505060405180910390f35b34801561019b57600080fd5b5061023c600480360381019080803590602001908201803590602001908080601f0160208091040260200160405190810160405280939291908181526020018383808284378201915050505050509192919290803590602001908201803590602001908080601f0160208091040260200160405190810160405280939291908181526020018383808284378201915050505050509192919290505050610baa565b005b34801561024a57600080fd5b50610253610e42565b6040518082815260200191505060405180910390f35b34801561027557600080fd5b5061029460048036038101908080359060200190929190505050610e4c565b604051808581526020018060200180602001848152602001838103835286818151815260200191508051906020019080838360005b838110156102e45780820151818401526020810190506102c9565b50505050905090810190601f1680156103115780820380516001836020036101000a031916815260200191505b50838103825285818151815260200191508051906020019080838360005b8381101561034a57808201518184015260208101905061032f565b50505050905090810190601f1680156103775780820380516001836020036101000a031916815260200191505b50965050505050505060405180910390f35b34801561039557600080fd5b506103b460048036038101908080359060200190929190505050610fac565b6040518080602001828103825283818151815260200191508051906020019080838360005b838110156103f45780820151818401526020810190506103d9565b50505050905090810190601f1680156104215780820380516001836020036101000a031916815260200191505b509250505060405180910390f35b34801561043b57600080fd5b50610444611064565b005b34801561045257600080fd5b5061045b611125565b005b34801561046957600080fd5b506104726111e6565b604051808273ffffffffffffffffffffffffffffffffffffffff1673ffffffffffffffffffffffffffffffffffffffff16815260200191505060405180910390f35b3480156104c057600080fd5b506104c961120f565b604051808273ffffffffffffffffffffffffffffffffffffffff1673ffffffffffffffffffffffffffffffffffffffff16815260200191505060405180910390f35b34801561051757600080fd5b50610520611234565b6040518082815260200191505060405180910390f35b34801561054257600080fd5b5061054b611325565b604051808215151515815260200191505060405180910390f35b34801561057157600080fd5b506105a6600480360381019080803573ffffffffffffffffffffffffffffffffffffffff16906020019092919050505061133c565b604051808473ffffffffffffffffffffffffffffffffffffffff1673ffffffffffffffffffffffffffffffffffffffff1681526020018315151515815260200182151515158152602001935050505060405180910390f35b34801561060a57600080fd5b50610629600480360381019080803590602001909291905050506113a0565b6040518082815260200191505060405180910390f35b34801561064b57600080fd5b506106546113c0565b604051808215151515815260200191505060405180910390f35b34801561067a57600080fd5b50610699600480360381019080803590602001909291905050506113d7565b6040518080602001828103825283818151815260200191508051906020019080838360005b838110156106d95780820151818401526020810190506106be565b50505050905090810190601f1680156107065780820380516001836020036101000a031916815260200191505b509250505060405180910390f35b34801561072057600080fd5b5061072961148f565b6040518080602001828103825283818151815260200191508051906020019080838360005b8381101561076957808201518184015260208101905061074e565b50505050905090810190601f1680156107965780820380516001836020036101000a031916815260200191505b509250505060405180910390f35b3480156107b057600080fd5b506107e5600480360381019080803573ffffffffffffffffffffffffffffffffffffffff1690602001909291905050506115d7565b005b60011515600460009054906101000a900460ff16151514801561081d575060001515600460019054906101000a900460ff161515145b1515610891576040517f08c379a00000000000000000000000000000000000000000000000000000000081526004018080602001828103825260168152602001807f456c656374696f6e206973206e6f742072656164792e0000000000000000000081525060200191505060405180910390fd5b60001515600660003373ffffffffffffffffffffffffffffffffffffffff1673ffffffffffffffffffffffffffffffffffffffff16815260200190815260200160002060000160149054906101000a900460ff16151514151561095c576040517f08c379a00000000000000000000000000000000000000000000000000000000081526004018080602001828103825260208152602001807f596f75206861766520616c7265616479206361737420796f757220766f74652e81525060200191505060405180910390fd5b60011515600660003373ffffffffffffffffffffffffffffffffffffffff1673ffffffffffffffffffffffffffffffffffffffff16815260200190815260200160002060000160159054906101000a900460ff161515141515610a27576040517f08c379a000000000000000000000000000000000000000000000000000000000815260040180806020018281038252601d8152602001807f596f7520617265206e6f7420766572696669656420746f20766f74652e00000081525060200191505060405180910390fd5b600081118015610a3957506001548111155b1515610ad3576040517f08c379a00000000000000000000000000000000000000000000000000000000081526004018080602001828103825260238152602001807f506c656173652063686f6f736520612076616c69642063616e6469646174652081526020017f49442e000000000000000000000000000000000000000000000000000000000081525060400191505060405180910390fd5b60056000828152602001908152602001600020600301600081548092919060010191905055506001600660003373ffffffffffffffffffffffffffffffffffffffff1673ffffffffffffffffffffffffffffffffffffffff16815260200190815260200160002060000160146101000a81548160ff021916908315150217905550600360008154809291906001019190505550807ffff3c900d938d21d0990d786e819f29b8d05c1ef587b462b939609625b684b1660405160405180910390a250565b6000600254905090565b6000600354905090565b6000809054906101000a900473ffffffffffffffffffffffffffffffffffffffff1673ffffffffffffffffffffffffffffffffffffffff163373ffffffffffffffffffffffffffffffffffffffff16141515610c0557600080fd5b60001515600460009054906101000a900460ff161515148015610c3b575060001515600460019054906101000a900460ff161515145b1515610caf576040517f08c379a00000000000000000000000000000000000000000000000000000000081526004018080602001828103825260168152602001807f456c656374696f6e206973206e6f742072656164792e0000000000000000000081525060200191505060405180910390fd5b60016000815480929190600101919050555060806040519081016040528060015481526020018381526020018281526020016000815250600560006001548152602001908152602001600020600082015181600001556020820151816001019080519060200190610d21929190611835565b506040820151816002019080519060200190610d3e929190611835565b5060608201518160030155905050806040518082805190602001908083835b602083101515610d825780518252602082019150602081019050602083039250610d5d565b6001836020036101000a0380198251168184511680821785525050505050509050019150506040518091039020826040518082805190602001908083835b602083101515610de55780518252602082019150602081019050602083039250610dc0565b6001836020036101000a03801982511681845116808217855250505050505090500191505060405180910390207f53864084fd4f06e37db52723b77cdde4aeb2b167d4d449aab140ff965f02a87a60405160405180910390a35050565b6000600154905090565b6005602052806000526040600020600091509050806000015490806001018054600181600116156101000203166002900480601f016020809104026020016040519081016040528092919081815260200182805460018160011615610100020316600290048015610efe5780601f10610ed357610100808354040283529160200191610efe565b820191906000526020600020905b815481529060010190602001808311610ee157829003601f168201915b505050505090806002018054600181600116156101000203166002900480601f016020809104026020016040519081016040528092919081815260200182805460018160011615610100020316600290048015610f9c5780601f10610f7157610100808354040283529160200191610f9c565b820191906000526020600020905b815481529060010190602001808311610f7f57829003601f168201915b5050505050908060030154905084565b6060600560008381526020019081526020016000206002018054600181600116156101000203166002900480601f0160208091040260200160405190810160405280929190818152602001828054600181600116156101000203166002900480156110585780601f1061102d57610100808354040283529160200191611058565b820191906000526020600020905b81548152906001019060200180831161103b57829003601f168201915b50505050509050919050565b6000809054906101000a900473ffffffffffffffffffffffffffffffffffffffff1673ffffffffffffffffffffffffffffffffffffffff163373ffffffffffffffffffffffffffffffffffffffff161415156110bf57600080fd5b6001600460016101000a81548160ff0219169083151502179055506000600460006101000a81548160ff02191690831515021790555060007fcbf5d831a51314e3c65981879a19fcba59ca7d28dc62908dc3f2712237969ec660405160405180910390a2565b6000809054906101000a900473ffffffffffffffffffffffffffffffffffffffff1673ffffffffffffffffffffffffffffffffffffffff163373ffffffffffffffffffffffffffffffffffffffff1614151561118057600080fd5b6001600460006101000a81548160ff0219169083151502179055506000600460016101000a81548160ff02191690831515021790555060017fcbf5d831a51314e3c65981879a19fcba59ca7d28dc62908dc3f2712237969ec660405160405180910390a2565b60008060009054906101000a900473ffffffffffffffffffffffffffffffffffffffff16905090565b6000809054906101000a900473ffffffffffffffffffffffffffffffffffffffff1681565b600080600060011515600460019054906101000a900460ff1615151415156112c4576040517f08c379a00000000000000000000000000000000000000000000000000000000081526004018080602001828103825260188152602001807f456c656374696f6e206d757374206861766520656e646564000000000000000081525060200191505060405180910390fd5b60009150600190505b6001548111151561132057816005600083815260200190815260200160002060030154111561131357600560008281526020019081526020016000206003015491508092505b80806001019150506112cd565b505090565b6000600460019054906101000a900460ff16905090565b60066020528060005260406000206000915090508060000160009054906101000a900473ffffffffffffffffffffffffffffffffffffffff16908060000160149054906101000a900460ff16908060000160159054906101000a900460ff16905083565b600060056000838152602001908152602001600020600301549050919050565b6000600460009054906101000a900460ff16905090565b6060600560008381526020019081526020016000206001018054600181600116156101000203166002900480601f0160208091040260200160405190810160405280929190818152602001828054600181600116156101000203166002900480156114835780601f1061145857610100808354040283529160200191611483565b820191906000526020600020905b81548152906001019060200180831161146657829003601f168201915b50505050509050919050565b606060011515600460019054906101000a900460ff16151514151561151c576040517f08c379a00000000000000000000000000000000000000000000000000000000081526004018080602001828103825260188152602001807f456c656374696f6e206d757374206861766520656e646564000000000000000081525060200191505060405180910390fd5b60056000611528611234565b81526020019081526020016000206001018054600181600116156101000203166002900480601f0160208091040260200160405190810160405280929190818152602001828054600181600116156101000203166002900480156115cd5780601f106115a2576101008083540402835291602001916115cd565b820191906000526020600020905b8154815290600101906020018083116115b057829003601f168201915b5050505050905090565b6000809054906101000a900473ffffffffffffffffffffffffffffffffffffffff1673ffffffffffffffffffffffffffffffffffffffff163373ffffffffffffffffffffffffffffffffffffffff1614151561163257600080fd5b60001515600460009054906101000a900460ff161515148015611668575060001515600460019054906101000a900460ff161515145b15156116dc576040517f08c379a00000000000000000000000000000000000000000000000000000000081526004018080602001828103825260168152602001807f456c656374696f6e206973206e6f742072656164792e0000000000000000000081525060200191505060405180910390fd5b6002600081548092919060010191905055506060604051908101604052808273ffffffffffffffffffffffffffffffffffffffff16815260200160001515815260200160011515815250600660008373ffffffffffffffffffffffffffffffffffffffff1673ffffffffffffffffffffffffffffffffffffffff16815260200190815260200160002060008201518160000160006101000a81548173ffffffffffffffffffffffffffffffffffffffff021916908373ffffffffffffffffffffffffffffffffffffffff16021790555060208201518160000160146101000a81548160ff02191690831515021790555060408201518160000160156101000a81548160ff0219169083151502179055509050508073ffffffffffffffffffffffffffffffffffffffff167f5308f9f79bc296f1098de7cc08a58df5103c0a30921a030bfde061cf1f526c5c60405160405180910390a250565b828054600181600116156101000203166002900490600052602060002090601f016020900481019282601f1061187657805160ff19168380011785556118a4565b828001600101855582156118a4579182015b828111156118a3578251825591602001919060010190611888565b5b5090506118b191906118b5565b5090565b6118d791905b808211156118d35760008160009055506001016118bb565b5090565b905600a165627a7a72305820dbf3374442c2dada60ffb9c019a398daeb888237713b1b04890da92fc5ed61bc0029",
  "source": "pragma solidity ^0.4.22;\n\ncontract Election {\n    address public owner;\n    uint candidateCount;\n    uint voterCount;\n    uint castVotesCount;\n    bool start;\n    bool end;\n\n    /**\n    * @dev Set contract deployer as owner, set counters as zero and set booleans as false\n    */\n    constructor() public {\n        owner = msg.sender;\n        candidateCount = 0;\n        voterCount = 0;\n        castVotesCount = 0;\n        start = false;\n        end = false;\n    }\n\n    // Return the public address of the owner\n    function getOwner() public view returns(address) {\n        return owner;\n    }\n\n    // Only Admin modifier to check if caller is the owner\n    modifier onlyAdmin() {\n        require(msg.sender == owner);\n        _;\n    }\n\n    // Event for adding a new candidate\n    event addedCandidateEvent(\n        string indexed _name,\n        string indexed _party\n    );\n\n    // Event for adding a new voter\n    event addedVoterEvent(\n        address indexed _publicKey\n    );\n\n    // Event for the election being ready\n    event electionReady(\n        uint indexed _ready\n    );\n\n    // Event for a vote being cast\n    event votedEvent(\n        uint indexed _candidateId\n    );\n\n    // Candidate Model\n    struct Candidate{\n        uint candidateId;\n        string name;\n        string party;\n        uint voteCount;\n    }\n\n    mapping(uint => Candidate) public candidates;\n\n    /** \n    * @dev Add a candidate to the election\n    * @param _name of the candidate to be added\n    * @param _party that the candidate belongs to\n    */\n    function addCandidate(string _name, string _party) public onlyAdmin {\n        require(start == false && end == false, \"Election is not ready.\");\n        candidateCount++;\n        candidates[candidateCount] = Candidate({\n            candidateId : candidateCount,\n            name : _name,\n            party : _party,\n            voteCount : 0\n        });\n        emit addedCandidateEvent(_name, _party);\n    }\n\n    /** \n    * @dev Gets the name of a specific candidate\n    * @param _candidateId used to locate the candidate in the candidates mapping\n    * @return tring that stores the name associated with the candidate\n    */\n    function getCandidateName(uint _candidateId) public view returns (string) {\n        return candidates[_candidateId].name;\n    }\n\n    /** \n    * @dev Gets the party of a specific candidate\n    * @param _candidateId used to locate the candidate in the candidates mapping\n    * @return string that stores the party associated with the candidate\n    */\n    function getCandidateParty(uint _candidateId) public view returns (string) {\n        return candidates[_candidateId].party;\n    }\n\n    /** \n    * @dev Gets the vote count of a specific candidate\n    * @param _candidateId used to locate the candidate in the candidates mapping\n    * @return uint that stores the number of votes relating to the candidate\n    */\n    function getCandidateVoteCount(uint _candidateId) public view returns (uint) {\n        return candidates[_candidateId].voteCount;\n    }\n\n    /** \n    * @dev Checks the number of candidates that have been added to the election\n    * @return uint that stores the number of candidates\n    */\n    function getCandidateCount() public view returns (uint) {\n        return candidateCount;\n    }\n\n    // Voter Model\n    struct Voter{\n        address voterAddress;\n        bool hasVoted;\n        bool isVerified;\n    }\n\n    mapping(address => Voter) public voters;\n\n    /** \n    * @dev Add a voter to the election\n    * @param _publicKey is the public key of the voter that is being added to the election\n    */\n    function addVoter(address _publicKey) public onlyAdmin {\n        require(start == false && end == false, \"Election is not ready.\");\n        voterCount++;\n        voters[_publicKey] = Voter({\n            voterAddress : _publicKey,\n            hasVoted : false,\n            isVerified : true\n        });\n        emit addedVoterEvent(_publicKey);\n    }\n\n    /** \n    * @dev Checks the number of voters that are registered\n    * @return uint that stores the number of registered voters\n    */\n    function getVoterCount() public view returns (uint) {\n        return voterCount;\n    }\n\n    /** \n    * @dev Checks the number of votes that have been cast\n    * @return uint that stores the number of cast votes \n    */\n    function getCastVotesCount() public view returns (uint) {\n        return castVotesCount;\n    }\n\n    /** \n    * @dev Vote for a certain candidate Id\n    * @param _candidateId is the index of the candidate in the candidates mapping\n    */\n    function vote(uint _candidateId) public {\n        require(start == true && end == false, \"Election is not ready.\");\n        require(voters[msg.sender].hasVoted == false, \"You have already cast your vote.\");\n        require(voters[msg.sender].isVerified == true, \"You are not verified to vote.\");\n        require(_candidateId > 0 && _candidateId <= candidateCount, \"Please choose a valid candidate ID.\");\n        candidates[_candidateId].voteCount++;\n        voters[msg.sender].hasVoted = true;\n        castVotesCount++;\n        emit votedEvent(_candidateId);\n    }\n\n    /** \n    * @dev Starts the election by changing the value of the start boolean\n    */\n    function startElection() public onlyAdmin {\n        start = true;\n        end = false;\n        emit electionReady(1);\n    }\n\n    /** \n    * @dev Ends the election by changing the value of the end boolean\n    */\n    function endElection() public onlyAdmin {\n        end = true;\n        start = false;\n        emit electionReady(0);\n    }\n\n    /** \n    * @dev Checks if the election has started\n    * @return boolean that stores the election started value\n    */\n    function getStart() public view returns (bool) {\n        return start;\n    }\n\n    /** \n    * @dev Checks if the election has ended\n    * @return boolean that stores the election ended value\n    */\n    function getEnd() public view returns (bool) {\n        return end;\n    }\n\n    /** \n    * @dev Iterates over candidates and determines which candidate has the higest vote count\n    * @return candidate Id of the winner\n    */\n    function winnerIndex() public view returns (uint winnerIndex_) {\n        require(end == true, \"Election must have ended\");\n        uint winningVoteCount = 0;\n        for (uint i = 1; i <= candidateCount; i++) {\n            if (candidates[i].voteCount > winningVoteCount) {\n                winningVoteCount = candidates[i].voteCount;\n                winnerIndex_ = i;\n            }\n        }\n    }\n\n    /** \n    * @dev Calls winningProposal() function to find the index of the winner and returns the winners name\n    * @return winnerName_ the name of the winner\n    */\n    function winnerName() public view returns (string winnerName_) {\n        require(end == true, \"Election must have ended\");\n        winnerName_ = candidates[winnerIndex()].name;\n    }\n}",
  "sourcePath": "/Users/alexsoldin/Documents/Education/University/Fourth Year/Second Semester/EEE4022S/Code/election/contracts/Election.sol",
  "compiler": {
    "name": "solc",
    "version": "0.4.22+commit.4cb486ee.Emscripten.clang"
  },
  "schemaVersion": "3.2.5",
  "updatedAt": "2020-10-17T18:21:47.130Z",
  "networkType": "ethereum",
  "devdoc": {
    "methods": {
      "addCandidate(string,string)": {
        "details": "Add a candidate to the election",
        "params": {
          "_name": "of the candidate to be added",
          "_party": "that the candidate belongs to"
        }
      },
      "addVoter(address)": {
        "details": "Add a voter to the election",
        "params": {
          "_publicKey": "is the public key of the voter that is being added to the election"
        }
      },
      "endElection()": {
        "details": "Ends the election by changing the value of the end boolean"
      },
      "getCandidateCount()": {
        "details": "Checks the number of candidates that have been added to the election",
        "return": "uint that stores the number of candidates"
      },
      "getCandidateName(uint256)": {
        "details": "Gets the name of a specific candidate",
        "params": {
          "_candidateId": "used to locate the candidate in the candidates mapping"
        },
        "return": "tring that stores the name associated with the candidate"
      },
      "getCandidateParty(uint256)": {
        "details": "Gets the party of a specific candidate",
        "params": {
          "_candidateId": "used to locate the candidate in the candidates mapping"
        },
        "return": "string that stores the party associated with the candidate"
      },
      "getCandidateVoteCount(uint256)": {
        "details": "Gets the vote count of a specific candidate",
        "params": {
          "_candidateId": "used to locate the candidate in the candidates mapping"
        },
        "return": "uint that stores the number of votes relating to the candidate"
      },
      "getCastVotesCount()": {
        "details": "Checks the number of votes that have been cast",
        "return": "uint that stores the number of cast votes "
      },
      "getEnd()": {
        "details": "Checks if the election has ended",
        "return": "boolean that stores the election ended value"
      },
      "getStart()": {
        "details": "Checks if the election has started",
        "return": "boolean that stores the election started value"
      },
      "getVoterCount()": {
        "details": "Checks the number of voters that are registered",
        "return": "uint that stores the number of registered voters"
      },
      "startElection()": {
        "details": "Starts the election by changing the value of the start boolean"
      },
      "vote(uint256)": {
        "details": "Vote for a certain candidate Id",
        "params": {
          "_candidateId": "is the index of the candidate in the candidates mapping"
        }
      },
      "winnerIndex()": {
        "details": "Iterates over candidates and determines which candidate has the higest vote count",
        "return": "candidate Id of the winner"
      },
      "winnerName()": {
        "details": "Calls winningProposal() function to find the index of the winner and returns the winners name",
        "return": "winnerName_ the name of the winner"
      }
    }
  },
  "userdoc": {
    "methods": {}
  }
}