{
  "contractName": "Election",
  "abi": [
    {
      "constant": true,
      "inputs": [
        {
          "name": "",
          "type": "uint256"
        }
      ],
      "name": "candidates",
      "outputs": [
        {
          "name": "candidateId",
          "type": "uint256"
        },
        {
          "name": "name",
          "type": "string"
        },
        {
          "name": "party",
          "type": "string"
        },
        {
          "name": "voteCount",
          "type": "uint256"
        }
      ],
      "payable": false,
      "stateMutability": "view",
      "type": "function"
    },
    {
      "constant": true,
      "inputs": [],
      "name": "owner",
      "outputs": [
        {
          "name": "",
          "type": "address"
        }
      ],
      "payable": false,
      "stateMutability": "view",
      "type": "function"
    },
    {
      "inputs": [],
      "payable": false,
      "stateMutability": "nonpayable",
      "type": "constructor"
    },
    {
      "constant": true,
      "inputs": [],
      "name": "getOwner",
      "outputs": [
        {
          "name": "",
          "type": "address"
        }
      ],
      "payable": false,
      "stateMutability": "view",
      "type": "function"
    },
    {
      "constant": false,
      "inputs": [
        {
          "name": "_name",
          "type": "string"
        },
        {
          "name": "_party",
          "type": "string"
        }
      ],
      "name": "addCandidate",
      "outputs": [],
      "payable": false,
      "stateMutability": "nonpayable",
      "type": "function"
    },
    {
      "constant": true,
      "inputs": [
        {
          "name": "_candidateId",
          "type": "uint256"
        }
      ],
      "name": "getCandidateName",
      "outputs": [
        {
          "name": "",
          "type": "string"
        }
      ],
      "payable": false,
      "stateMutability": "view",
      "type": "function"
    },
    {
      "constant": true,
      "inputs": [
        {
          "name": "_candidateId",
          "type": "uint256"
        }
      ],
      "name": "getCandidateParty",
      "outputs": [
        {
          "name": "",
          "type": "string"
        }
      ],
      "payable": false,
      "stateMutability": "view",
      "type": "function"
    },
    {
      "constant": true,
      "inputs": [
        {
          "name": "_candidateId",
          "type": "uint256"
        }
      ],
      "name": "getCandidateVoteCount",
      "outputs": [
        {
          "name": "",
          "type": "uint256"
        }
      ],
      "payable": false,
      "stateMutability": "view",
      "type": "function"
    },
    {
      "constant": true,
      "inputs": [],
      "name": "getCandidateCount",
      "outputs": [
        {
          "name": "",
          "type": "uint256"
        }
      ],
      "payable": false,
      "stateMutability": "view",
      "type": "function"
    },
    {
      "constant": false,
      "inputs": [
        {
          "name": "_publicKey",
          "type": "address"
        }
      ],
      "name": "addVoter",
      "outputs": [],
      "payable": false,
      "stateMutability": "nonpayable",
      "type": "function"
    },
    {
      "constant": true,
      "inputs": [],
      "name": "getVoterCount",
      "outputs": [
        {
          "name": "",
          "type": "uint256"
        }
      ],
      "payable": false,
      "stateMutability": "view",
      "type": "function"
    },
    {
      "constant": true,
      "inputs": [],
      "name": "getCastVotesCount",
      "outputs": [
        {
          "name": "",
          "type": "uint256"
        }
      ],
      "payable": false,
      "stateMutability": "view",
      "type": "function"
    },
    {
      "constant": false,
      "inputs": [
        {
          "name": "_candidateId",
          "type": "uint256"
        }
      ],
      "name": "vote",
      "outputs": [],
      "payable": false,
      "stateMutability": "nonpayable",
      "type": "function"
    },
    {
      "constant": false,
      "inputs": [],
      "name": "startElection",
      "outputs": [],
      "payable": false,
      "stateMutability": "nonpayable",
      "type": "function"
    },
    {
      "constant": false,
      "inputs": [],
      "name": "endElection",
      "outputs": [],
      "payable": false,
      "stateMutability": "nonpayable",
      "type": "function"
    },
    {
      "constant": true,
      "inputs": [],
      "name": "getStart",
      "outputs": [
        {
          "name": "",
          "type": "bool"
        }
      ],
      "payable": false,
      "stateMutability": "view",
      "type": "function"
    },
    {
      "constant": true,
      "inputs": [],
      "name": "getEnd",
      "outputs": [
        {
          "name": "",
          "type": "bool"
        }
      ],
      "payable": false,
      "stateMutability": "view",
      "type": "function"
    }
  ],
  "bytecode": "0x608060405234801561001057600080fd5b50336000806101000a81548173ffffffffffffffffffffffffffffffffffffffff021916908373ffffffffffffffffffffffffffffffffffffffff160217905550600060018190555060006002819055506000600460006101000a81548160ff0219169083151502179055506000600460016101000a81548160ff0219169083151502179055506111e5806100a66000396000f3006080604052600436106100e6576000357c0100000000000000000000000000000000000000000000000000000000900463ffffffff1680630121b93f146100eb57806311174a291461011857806315ebaa991461014357806326541b561461016e57806330a563471461021d5780633477ee2e14610248578063456645a71461036857806359f784681461040e57806362d73eb814610425578063893d20e81461043c5780638da5cb5b146104935780639f05a36d146104ea578063b315c59714610519578063c5292c671461055a578063e13804a714610589578063f4ab9adf1461062f575b600080fd5b3480156100f757600080fd5b5061011660048036038101908080359060200190929190505050610672565b005b34801561012457600080fd5b5061012d6109f7565b6040518082815260200191505060405180910390f35b34801561014f57600080fd5b50610158610a01565b6040518082815260200191505060405180910390f35b34801561017a57600080fd5b5061021b600480360381019080803590602001908201803590602001908080601f0160208091040260200160405190810160405280939291908181526020018383808284378201915050505050509192919290803590602001908201803590602001908080601f0160208091040260200160405190810160405280939291908181526020018383808284378201915050505050509192919290505050610a0b565b005b34801561022957600080fd5b50610232610b07565b6040518082815260200191505060405180910390f35b34801561025457600080fd5b5061027360048036038101908080359060200190929190505050610b11565b604051808581526020018060200180602001848152602001838103835286818151815260200191508051906020019080838360005b838110156102c35780820151818401526020810190506102a8565b50505050905090810190601f1680156102f05780820380516001836020036101000a031916815260200191505b50838103825285818151815260200191508051906020019080838360005b8381101561032957808201518184015260208101905061030e565b50505050905090810190601f1680156103565780820380516001836020036101000a031916815260200191505b50965050505050505060405180910390f35b34801561037457600080fd5b5061039360048036038101908080359060200190929190505050610c71565b6040518080602001828103825283818151815260200191508051906020019080838360005b838110156103d35780820151818401526020810190506103b8565b50505050905090810190601f1680156104005780820380516001836020036101000a031916815260200191505b509250505060405180910390f35b34801561041a57600080fd5b50610423610d29565b005b34801561043157600080fd5b5061043a610dbc565b005b34801561044857600080fd5b50610451610e4f565b604051808273ffffffffffffffffffffffffffffffffffffffff1673ffffffffffffffffffffffffffffffffffffffff16815260200191505060405180910390f35b34801561049f57600080fd5b506104a8610e78565b604051808273ffffffffffffffffffffffffffffffffffffffff1673ffffffffffffffffffffffffffffffffffffffff16815260200191505060405180910390f35b3480156104f657600080fd5b506104ff610e9d565b604051808215151515815260200191505060405180910390f35b34801561052557600080fd5b5061054460048036038101908080359060200190929190505050610eb4565b6040518082815260200191505060405180910390f35b34801561056657600080fd5b5061056f610ed4565b604051808215151515815260200191505060405180910390f35b34801561059557600080fd5b506105b460048036038101908080359060200190929190505050610eeb565b6040518080602001828103825283818151815260200191508051906020019080838360005b838110156105f45780820151818401526020810190506105d9565b50505050905090810190601f1680156106215780820380516001836020036101000a031916815260200191505b509250505060405180910390f35b34801561063b57600080fd5b50610670600480360381019080803573ffffffffffffffffffffffffffffffffffffffff169060200190929190505050610fa3565b005b60001515600660003373ffffffffffffffffffffffffffffffffffffffff1673ffffffffffffffffffffffffffffffffffffffff16815260200190815260200160002060000160149054906101000a900460ff16151514151561073d576040517f08c379a00000000000000000000000000000000000000000000000000000000081526004018080602001828103825260208152602001807f596f75206861766520616c7265616479206361737420796f757220766f74652e81525060200191505060405180910390fd5b60011515600660003373ffffffffffffffffffffffffffffffffffffffff1673ffffffffffffffffffffffffffffffffffffffff16815260200190815260200160002060000160159054906101000a900460ff16151514151561079f57600080fd5b6000811180156107b157506001548111155b151561084b576040517f08c379a00000000000000000000000000000000000000000000000000000000081526004018080602001828103825260238152602001807f506c656173652063686f6f736520612076616c69642063616e6469646174652081526020017f49442e000000000000000000000000000000000000000000000000000000000081525060400191505060405180910390fd5b60011515600460009054906101000a900460ff1615151415156108d6576040517f08c379a00000000000000000000000000000000000000000000000000000000081526004018080602001828103825260198152602001807f456c656374696f6e20686173206e6f7420737461727465642e0000000000000081525060200191505060405180910390fd5b60001515600460019054906101000a900460ff161515141515610961576040517f08c379a00000000000000000000000000000000000000000000000000000000081526004018080602001828103825260138152602001807f456c656374696f6e2068617320656e6465642e0000000000000000000000000081525060200191505060405180910390fd5b60056000828152602001908152602001600020600301600081548092919060010191905055506001600660003373ffffffffffffffffffffffffffffffffffffffff1673ffffffffffffffffffffffffffffffffffffffff16815260200190815260200160002060000160146101000a81548160ff02191690831515021790555060036000815480929190600101919050555050565b6000600254905090565b6000600354905090565b6000809054906101000a900473ffffffffffffffffffffffffffffffffffffffff1673ffffffffffffffffffffffffffffffffffffffff163373ffffffffffffffffffffffffffffffffffffffff16141515610a6657600080fd5b60016000815480929190600101919050555060806040519081016040528060015481526020018381526020018281526020016000815250600560006001548152602001908152602001600020600082015181600001556020820151816001019080519060200190610ad8929190611114565b506040820151816002019080519060200190610af5929190611114565b50606082015181600301559050505050565b6000600154905090565b6005602052806000526040600020600091509050806000015490806001018054600181600116156101000203166002900480601f016020809104026020016040519081016040528092919081815260200182805460018160011615610100020316600290048015610bc35780601f10610b9857610100808354040283529160200191610bc3565b820191906000526020600020905b815481529060010190602001808311610ba657829003601f168201915b505050505090806002018054600181600116156101000203166002900480601f016020809104026020016040519081016040528092919081815260200182805460018160011615610100020316600290048015610c615780601f10610c3657610100808354040283529160200191610c61565b820191906000526020600020905b815481529060010190602001808311610c4457829003601f168201915b5050505050908060030154905084565b6060600560008381526020019081526020016000206002018054600181600116156101000203166002900480601f016020809104026020016040519081016040528092919081815260200182805460018160011615610100020316600290048015610d1d5780601f10610cf257610100808354040283529160200191610d1d565b820191906000526020600020905b815481529060010190602001808311610d0057829003601f168201915b50505050509050919050565b6000809054906101000a900473ffffffffffffffffffffffffffffffffffffffff1673ffffffffffffffffffffffffffffffffffffffff163373ffffffffffffffffffffffffffffffffffffffff16141515610d8457600080fd5b6001600460016101000a81548160ff0219169083151502179055506000600460006101000a81548160ff021916908315150217905550565b6000809054906101000a900473ffffffffffffffffffffffffffffffffffffffff1673ffffffffffffffffffffffffffffffffffffffff163373ffffffffffffffffffffffffffffffffffffffff16141515610e1757600080fd5b6001600460006101000a81548160ff0219169083151502179055506000600460016101000a81548160ff021916908315150217905550565b60008060009054906101000a900473ffffffffffffffffffffffffffffffffffffffff16905090565b6000809054906101000a900473ffffffffffffffffffffffffffffffffffffffff1681565b6000600460019054906101000a900460ff16905090565b600060056000838152602001908152602001600020600301549050919050565b6000600460009054906101000a900460ff16905090565b6060600560008381526020019081526020016000206001018054600181600116156101000203166002900480601f016020809104026020016040519081016040528092919081815260200182805460018160011615610100020316600290048015610f975780601f10610f6c57610100808354040283529160200191610f97565b820191906000526020600020905b815481529060010190602001808311610f7a57829003601f168201915b50505050509050919050565b6000809054906101000a900473ffffffffffffffffffffffffffffffffffffffff1673ffffffffffffffffffffffffffffffffffffffff163373ffffffffffffffffffffffffffffffffffffffff16141515610ffe57600080fd5b6002600081548092919060010191905055506060604051908101604052808273ffffffffffffffffffffffffffffffffffffffff16815260200160001515815260200160011515815250600660008373ffffffffffffffffffffffffffffffffffffffff1673ffffffffffffffffffffffffffffffffffffffff16815260200190815260200160002060008201518160000160006101000a81548173ffffffffffffffffffffffffffffffffffffffff021916908373ffffffffffffffffffffffffffffffffffffffff16021790555060208201518160000160146101000a81548160ff02191690831515021790555060408201518160000160156101000a81548160ff02191690831515021790555090505050565b828054600181600116156101000203166002900490600052602060002090601f016020900481019282601f1061115557805160ff1916838001178555611183565b82800160010185558215611183579182015b82811115611182578251825591602001919060010190611167565b5b5090506111909190611194565b5090565b6111b691905b808211156111b257600081600090555060010161119a565b5090565b905600a165627a7a723058201e2d20220519ae3d3f6a8c9d7391bfa9a9884a70b272cbe85e6bd49dfb924ff80029",
  "source": "pragma solidity ^0.4.22;\n\ncontract Election {\n    address public owner;\n    uint candidateCount;\n    uint voterCount;\n    uint castVotesCount;\n    bool start;\n    bool end;\n\n    // Constructor\n    function Election() public {\n        owner = msg.sender;\n        candidateCount = 0;\n        voterCount = 0;\n        start = false;\n        end = false;\n    }\n\n    // Return the public address of the owner\n    function getOwner() public view returns(address) {\n        return owner;\n    }\n\n    // Only Admin\n    modifier onlyAdmin() {\n        require(msg.sender == owner);\n        _;\n    }\n\n    // Candidate Model\n    struct Candidate{\n        uint candidateId;\n        string name;\n        string party;\n        uint voteCount;\n    }\n\n    mapping(uint => Candidate) public candidates;\n\n    // Add a new candidate\n    function addCandidate(string _name, string _party) public onlyAdmin {\n        candidateCount++;\n        candidates[candidateCount] = Candidate({\n            candidateId : candidateCount,\n            name : _name,\n            party : _party,\n            voteCount : 0\n        });\n    }\n\n    /*\n        Accessor methods for candidate data\n        Returns: name, party, voteCount\n    */\n    function getCandidateName(uint _candidateId) public view returns (string) {\n        return candidates[_candidateId].name;\n    }\n\n    function getCandidateParty(uint _candidateId) public view returns (string) {\n        return candidates[_candidateId].party;\n    }\n\n    function getCandidateVoteCount(uint _candidateId) public view returns (uint) {\n        return candidates[_candidateId].voteCount;\n    }\n\n    // CandidateCount accessor method\n    function getCandidateCount() public view returns (uint) {\n        return candidateCount;\n    }\n\n    // Voter Model\n    struct Voter{\n        address voterAddress;\n        bool hasVoted;\n        bool isVerified;\n    }\n\n    mapping(address => Voter) voters;\n\n    function addVoter(address _publicKey) public onlyAdmin {\n        voterCount++;\n        voters[_publicKey] = Voter({\n            voterAddress : _publicKey,\n            hasVoted : false,\n            isVerified : true\n        });\n    }\n\n    // Request to be added as a voter\n    // function requestVoter(string _name) public {\n    //     voters[msg.sender] = Voter({\n    //         voterAddress : msg.sender,\n    //         name : _name,\n    //         hasVoted : false,\n    //         isVerified : true\n    //     });\n    //     requestedVoters.push(msg.sender);\n    //     voterCount += 1;\n    // }\n\n    // Addresses of voters wanting to participate \n    // function getRequestedVoters(uint _index) public view returns(address){\n    //     return requestedVoters[_index];\n    // }\n\n    // Number of registered voters\n    function getVoterCount() public view returns (uint) {\n        return voterCount;\n    }\n\n    // Number of cast votes\n    function getCastVotesCount() public view returns (uint) {\n        return castVotesCount;\n    }\n\n    // Vote for a certain candidate\n    function vote(uint _candidateId) public {\n        require(voters[msg.sender].hasVoted == false, \"You have already cast your vote.\");\n        require(voters[msg.sender].isVerified == true);\n        require(_candidateId > 0 && _candidateId <= candidateCount, \"Please choose a valid candidate ID.\");\n        require(start == true, \"Election has not started.\");\n        require(end == false, \"Election has ended.\");\n        candidates[_candidateId].voteCount++;\n        voters[msg.sender].hasVoted = true;\n        castVotesCount++;\n    }\n\n    /*\n        Start and End the election\n    */\n    function startElection() public onlyAdmin {\n        start = true;\n        end = false;\n    }\n\n    function endElection() public onlyAdmin {\n        end = true;\n        start = false;\n    }\n\n    function getStart() public view returns (bool) {\n        return start;\n    }\n\n    function getEnd() public view returns (bool) {\n        return end;\n    }\n}",
  "sourcePath": "/Users/alexsoldin/Documents/University/Fourth Year/Second Semester/EEE4022S/Code/election/contracts/Election.sol",
  "compiler": {
    "name": "solc",
    "version": "0.4.22+commit.4cb486ee.Emscripten.clang"
  },
  "schemaVersion": "3.2.5",
  "updatedAt": "2020-09-19T11:15:58.332Z",
  "networkType": "ethereum",
  "devdoc": {
    "methods": {}
  },
  "userdoc": {
    "methods": {}
  }
}