{
  "contractName": "Election",
  "abi": [
    {
      "constant": true,
      "inputs": [
        {
          "name": "",
          "type": "uint256"
        }
      ],
      "name": "candidates",
      "outputs": [
        {
          "name": "candidateId",
          "type": "uint256"
        },
        {
          "name": "name",
          "type": "string"
        },
        {
          "name": "party",
          "type": "string"
        },
        {
          "name": "voteCount",
          "type": "uint256"
        }
      ],
      "payable": false,
      "stateMutability": "view",
      "type": "function"
    },
    {
      "constant": true,
      "inputs": [],
      "name": "owner",
      "outputs": [
        {
          "name": "",
          "type": "address"
        }
      ],
      "payable": false,
      "stateMutability": "view",
      "type": "function"
    },
    {
      "inputs": [],
      "payable": false,
      "stateMutability": "nonpayable",
      "type": "constructor"
    },
    {
      "constant": true,
      "inputs": [],
      "name": "getOwner",
      "outputs": [
        {
          "name": "",
          "type": "address"
        }
      ],
      "payable": false,
      "stateMutability": "view",
      "type": "function"
    },
    {
      "constant": false,
      "inputs": [
        {
          "name": "_name",
          "type": "string"
        },
        {
          "name": "_party",
          "type": "string"
        }
      ],
      "name": "addCandidate",
      "outputs": [],
      "payable": false,
      "stateMutability": "nonpayable",
      "type": "function"
    },
    {
      "constant": true,
      "inputs": [
        {
          "name": "_candidateId",
          "type": "uint256"
        }
      ],
      "name": "getCandidateName",
      "outputs": [
        {
          "name": "",
          "type": "string"
        }
      ],
      "payable": false,
      "stateMutability": "view",
      "type": "function"
    },
    {
      "constant": true,
      "inputs": [
        {
          "name": "_candidateId",
          "type": "uint256"
        }
      ],
      "name": "getCandidateParty",
      "outputs": [
        {
          "name": "",
          "type": "string"
        }
      ],
      "payable": false,
      "stateMutability": "view",
      "type": "function"
    },
    {
      "constant": true,
      "inputs": [
        {
          "name": "_candidateId",
          "type": "uint256"
        }
      ],
      "name": "getCandidateVoteCount",
      "outputs": [
        {
          "name": "",
          "type": "uint256"
        }
      ],
      "payable": false,
      "stateMutability": "view",
      "type": "function"
    },
    {
      "constant": true,
      "inputs": [],
      "name": "getCandidateCount",
      "outputs": [
        {
          "name": "",
          "type": "uint256"
        }
      ],
      "payable": false,
      "stateMutability": "view",
      "type": "function"
    },
    {
      "constant": true,
      "inputs": [],
      "name": "getVoterCount",
      "outputs": [
        {
          "name": "",
          "type": "uint256"
        }
      ],
      "payable": false,
      "stateMutability": "view",
      "type": "function"
    },
    {
      "constant": false,
      "inputs": [
        {
          "name": "_candidateId",
          "type": "uint256"
        }
      ],
      "name": "vote",
      "outputs": [],
      "payable": false,
      "stateMutability": "nonpayable",
      "type": "function"
    },
    {
      "constant": false,
      "inputs": [],
      "name": "startElection",
      "outputs": [],
      "payable": false,
      "stateMutability": "nonpayable",
      "type": "function"
    },
    {
      "constant": false,
      "inputs": [],
      "name": "endElection",
      "outputs": [],
      "payable": false,
      "stateMutability": "nonpayable",
      "type": "function"
    },
    {
      "constant": true,
      "inputs": [],
      "name": "getStart",
      "outputs": [
        {
          "name": "",
          "type": "bool"
        }
      ],
      "payable": false,
      "stateMutability": "view",
      "type": "function"
    },
    {
      "constant": true,
      "inputs": [],
      "name": "getEnd",
      "outputs": [
        {
          "name": "",
          "type": "bool"
        }
      ],
      "payable": false,
      "stateMutability": "view",
      "type": "function"
    }
  ],
  "bytecode": "0x6060604052341561000f57600080fd5b336000806101000a81548173ffffffffffffffffffffffffffffffffffffffff021916908373ffffffffffffffffffffffffffffffffffffffff160217905550600060018190555060006002819055506000600360006101000a81548160ff0219169083151502179055506000600360016101000a81548160ff021916908315150217905550610cdf806100a46000396000f300606060405236156100ce576000357c0100000000000000000000000000000000000000000000000000000000900463ffffffff1680630121b93f146100d357806311174a29146100f657806326541b561461011f57806330a56347146101bf5780633477ee2e146101e8578063456645a71461033857806359f78468146103d457806362d73eb8146103e9578063893d20e8146103fe5780638da5cb5b146104535780639f05a36d146104a8578063b315c597146104d5578063c5292c671461050c578063e13804a714610539575b600080fd5b34156100de57600080fd5b6100f460048080359060200190919050506105d5565b005b341561010157600080fd5b61010961077e565b6040518082815260200191505060405180910390f35b341561012a57600080fd5b6101bd600480803590602001908201803590602001908080601f0160208091040260200160405190810160405280939291908181526020018383808284378201915050505050509190803590602001908201803590602001908080601f01602080910402602001604051908101604052809392919081815260200183838082843782019150505050505091905050610788565b005b34156101ca57600080fd5b6101d2610884565b6040518082815260200191505060405180910390f35b34156101f357600080fd5b610209600480803590602001909190505061088e565b6040518085815260200180602001806020018481526020018381038352868181546001816001161561010002031660029004815260200191508054600181600116156101000203166002900480156102a25780601f10610277576101008083540402835291602001916102a2565b820191906000526020600020905b81548152906001019060200180831161028557829003601f168201915b50508381038252858181546001816001161561010002031660029004815260200191508054600181600116156101000203166002900480156103255780601f106102fa57610100808354040283529160200191610325565b820191906000526020600020905b81548152906001019060200180831161030857829003601f168201915b5050965050505050505060405180910390f35b341561034357600080fd5b61035960048080359060200190919050506108bc565b6040518080602001828103825283818151815260200191508051906020019080838360005b8381101561039957808201518184015260208101905061037e565b50505050905090810190601f1680156103c65780820380516001836020036101000a031916815260200191505b509250505060405180910390f35b34156103df57600080fd5b6103e761097a565b005b34156103f457600080fd5b6103fc610a0d565b005b341561040957600080fd5b610411610aa0565b604051808273ffffffffffffffffffffffffffffffffffffffff1673ffffffffffffffffffffffffffffffffffffffff16815260200191505060405180910390f35b341561045e57600080fd5b610466610ac9565b604051808273ffffffffffffffffffffffffffffffffffffffff1673ffffffffffffffffffffffffffffffffffffffff16815260200191505060405180910390f35b34156104b357600080fd5b6104bb610aee565b604051808215151515815260200191505060405180910390f35b34156104e057600080fd5b6104f66004808035906020019091905050610b05565b6040518082815260200191505060405180910390f35b341561051757600080fd5b61051f610b25565b604051808215151515815260200191505060405180910390f35b341561054457600080fd5b61055a6004808035906020019091905050610b3c565b6040518080602001828103825283818151815260200191508051906020019080838360005b8381101561059a57808201518184015260208101905061057f565b50505050905090810190601f1680156105c75780820380516001836020036101000a031916815260200191505b509250505060405180910390f35b60001515600560003373ffffffffffffffffffffffffffffffffffffffff1673ffffffffffffffffffffffffffffffffffffffff16815260200190815260200160002060020160009054906101000a900460ff16151514151561063757600080fd5b60011515600560003373ffffffffffffffffffffffffffffffffffffffff1673ffffffffffffffffffffffffffffffffffffffff16815260200190815260200160002060020160019054906101000a900460ff16151514151561069957600080fd5b6000811180156106ab57506001548111155b15156106b657600080fd5b60011515600360009054906101000a900460ff1615151415156106d857600080fd5b60001515600360019054906101000a900460ff1615151415156106fa57600080fd5b60046000828152602001908152602001600020600301600081548092919060010191905055506001600560003373ffffffffffffffffffffffffffffffffffffffff1673ffffffffffffffffffffffffffffffffffffffff16815260200190815260200160002060020160006101000a81548160ff02191690831515021790555050565b6000600254905090565b6000809054906101000a900473ffffffffffffffffffffffffffffffffffffffff1673ffffffffffffffffffffffffffffffffffffffff163373ffffffffffffffffffffffffffffffffffffffff161415156107e357600080fd5b60016000815480929190600101919050555060806040519081016040528060015481526020018381526020018281526020016000815250600460006001548152602001908152602001600020600082015181600001556020820151816001019080519060200190610855929190610bfa565b506040820151816002019080519060200190610872929190610bfa565b50606082015181600301559050505050565b6000600154905090565b6004602052806000526040600020600091509050806000015490806001019080600201908060030154905084565b6108c4610c7a565b600460008381526020019081526020016000206002018054600181600116156101000203166002900480601f01602080910402602001604051908101604052809291908181526020018280546001816001161561010002031660029004801561096e5780601f106109435761010080835404028352916020019161096e565b820191906000526020600020905b81548152906001019060200180831161095157829003601f168201915b50505050509050919050565b6000809054906101000a900473ffffffffffffffffffffffffffffffffffffffff1673ffffffffffffffffffffffffffffffffffffffff163373ffffffffffffffffffffffffffffffffffffffff161415156109d557600080fd5b6001600360016101000a81548160ff0219169083151502179055506000600360006101000a81548160ff021916908315150217905550565b6000809054906101000a900473ffffffffffffffffffffffffffffffffffffffff1673ffffffffffffffffffffffffffffffffffffffff163373ffffffffffffffffffffffffffffffffffffffff16141515610a6857600080fd5b6001600360006101000a81548160ff0219169083151502179055506000600360016101000a81548160ff021916908315150217905550565b60008060009054906101000a900473ffffffffffffffffffffffffffffffffffffffff16905090565b6000809054906101000a900473ffffffffffffffffffffffffffffffffffffffff1681565b6000600360019054906101000a900460ff16905090565b600060046000838152602001908152602001600020600301549050919050565b6000600360009054906101000a900460ff16905090565b610b44610c7a565b600460008381526020019081526020016000206001018054600181600116156101000203166002900480601f016020809104026020016040519081016040528092919081815260200182805460018160011615610100020316600290048015610bee5780601f10610bc357610100808354040283529160200191610bee565b820191906000526020600020905b815481529060010190602001808311610bd157829003601f168201915b50505050509050919050565b828054600181600116156101000203166002900490600052602060002090601f016020900481019282601f10610c3b57805160ff1916838001178555610c69565b82800160010185558215610c69579182015b82811115610c68578251825591602001919060010190610c4d565b5b509050610c769190610c8e565b5090565b602060405190810160405280600081525090565b610cb091905b80821115610cac576000816000905550600101610c94565b5090565b905600a165627a7a72305820438bd13f5f75449b2d0b3b1359304f3a272f3f47b538024b58af113eb2f92a370029",
  "source": "pragma solidity ^0.4.17;\n\ncontract Election {\n    address public owner;\n    uint candidateCount;\n    uint voterCount;\n    bool start;\n    bool end;\n\n    // Constructor\n    function Election() public {\n        owner = msg.sender;\n        candidateCount = 0;\n        voterCount = 0;\n        start = false;\n        end = false;\n    }\n\n    // Return the public address of the owner\n    function getOwner() public view returns(address) {\n        return owner;\n    }\n\n    // Only Admin\n    modifier onlyAdmin() {\n        require(msg.sender == owner);\n        _;\n    }\n\n    // Model a Candidate\n    struct Candidate{\n        uint candidateId;\n        string name;\n        string party;\n        uint voteCount;\n    }\n\n    mapping(uint => Candidate) public candidates;\n\n    // Add a new candidate\n    function addCandidate(string _name, string _party) public onlyAdmin {\n        candidateCount++;\n        candidates[candidateCount] = Candidate({\n            candidateId : candidateCount,\n            name : _name,\n            party : _party,\n            voteCount : 0\n        });\n    }\n\n    /*\n        Accessor methods for candidate data\n        Returns: name, party, voteCount\n    */\n    function getCandidateName(uint _candidateId) public view returns (string) {\n        return candidates[_candidateId].name;\n    }\n\n    function getCandidateParty(uint _candidateId) public view returns (string) {\n        return candidates[_candidateId].party;\n    }\n\n    function getCandidateVoteCount(uint _candidateId) public view returns (uint) {\n        return candidates[_candidateId].voteCount;\n    }\n\n    // CandidateCount accessor method\n    function getCandidateCount() public view returns (uint) {\n        return candidateCount;\n    }\n\n    // Model a Voter\n    struct Voter{\n        address voterAddress;\n        string name;\n        bool hasVoted;\n        bool isVerified;\n    }\n\n    mapping(address => Voter) voters;\n    // address[] public voters;\n\n    // request to be added as voter\n    // function requestVoter(string _name, string _aadhar) public {\n    //     Voter memory newVoter = Voter({\n    //         voterAddress : msg.sender,\n    //         name : _name,\n    //         aadhar : _aadhar,\n    //         hasVoted : false,\n    //         isVerified : false\n    //     });\n    //     voters[msg.sender] = newVoter;\n    //     voters.push(msg.sender);\n    //     voterCount += 1;\n    // }\n\n    // get total number of voters\n    function getVoterCount() public view returns (uint) {\n        return voterCount;\n    }\n\n    // function verifyVoter(address _address) public onlyAdmin {\n    //     voters[_address].isVerified = true;\n    // }\n\n    function vote(uint _candidateId) public{\n        require(voters[msg.sender].hasVoted == false);\n        require(voters[msg.sender].isVerified == true);\n        require(_candidateId > 0 && _candidateId <= candidateCount);\n        require(start == true);\n        require(end == false);\n        candidates[_candidateId].voteCount++;\n        voters[msg.sender].hasVoted = true;\n    }\n\n    /*\n        Start and End the election\n    */\n    function startElection() public onlyAdmin {\n        start = true;\n        end = false;\n    }\n\n    function endElection() public onlyAdmin {\n        end = true;\n        start = false;\n    }\n\n    function getStart() public view returns (bool) {\n        return start;\n    }\n\n    function getEnd() public view returns (bool) {\n        return end;\n    }\n}",
  "sourcePath": "/Users/alexsoldin/Documents/University/Fourth Year/Second Semester/EEE4022S/Code/election/contracts/Election.sol",
  "compiler": {
    "name": "solc",
    "version": "0.4.17+commit.bdeb9e52.Emscripten.clang"
  },
  "schemaVersion": "3.2.5",
  "updatedAt": "2020-09-12T20:18:34.090Z",
  "networkType": "ethereum",
  "devdoc": {
    "methods": {}
  },
  "userdoc": {
    "methods": {}
  }
}